:02000000BE2B15
:1007780001340034BC23F000BD23F1008301C42BF5
:100788008316031306140611861183120313061128
:100798008615061CD02BD12BE42B01307006710472
:1007A800031DD72BD82BE42BDF2BDF2B0615861147
:1007B800F001F101DF2B0618E22BE32BDA2BE42BF7
:1007C800061CE72BE82BCD2B71087004031DED2BBD
:1007D800EE2BCD2BF72BF72B061186150130F000E9
:1007E8000030F100F72B0618FA2BFB2BF02BCD2B42
:0807F800CD2BCD2BCD2B0028E9
:02400E0070FF41
:00000001FF
